:020000040800F2
:100000000028002065160008651400086B1400081D
:1000100071140008771400087D1400080000000027
:100020000000000000000000000000008314000831
:100030008F140008000000009B140008A71400089B
:10004000AD160008AD160008AD160008AD16000884
:10005000AD160008AD160008AD160008AD16000874
:10006000AD160008AD160008AD160008AD16000864
:10007000AD160008AD160008AD160008AD16000854
:10008000AD160008AD160008AD160008AD16000844
:10009000AD160008AD160008AD160008AD16000834
:1000A000AD160008AD160008AD160008AD16000824
:1000B000B5140008AD16000800000000AD160008D9
:1000C000AD1600080000000000000000AD1600089A
:1000D00000000000AD160008AD160008000000008A
:1000E000AD160008AD160008AD16000800000000AF
:1000F0000000000000000000000000000000000000
:0C01000000000000000000005FF808F1A3
:10010C0010B5054C237833B9044B13B10448AFF345
:10011C0000800123237010BD50000020000000005F
:10012C00AC2C000808B5034B1BB103490348AFF3D3
:10013C00008008BD0000000054000020AC2C00081A
:10014C0080B400AF064B1B68012B04D1044B00227A
:10015C001A60012300E000231846BD4680BC70479E
:10016C006C00002080B400AF064B1B68012B04D13F
:10017C00044B00221A60012300E000231846BD4600
:10018C0080BC70477000002080B400AF064B1B6829
:10019C00012B04D1044B00221A60012300E0002340
:1001AC001846BD4680BC70477400002080B483B0F4
:1001BC0000AF78607B68002B03D10B4B01221A60D7
:1001CC000CE07B68012B03D1084B01221A6005E07F
:1001DC007B68022B02D1064B01221A6000BF0C3740
:1001EC00BD4680BC704700BF6C0000207000002032
:1001FC007400002080B582B000AF00237B6084E0E7
:10020C00464A7B6852F8232045497B6841F82320F5
:10021C00444A7B6852F8232040497B6841F82320EC
:10022C007B68022B21D07B68022B2ADC7B68002B9D
:10023C0003D07B68012B0CD023E04FF400613A48CB
:10024C0001F01AFD03461946364A7B6842F8231022
:10025C0017E04FF48051344801F00EFD0346194667
:10026C00304A7B6842F823100BE04FF400512E48C3
:10027C0001F002FD034619462A4A7B6842F8231016
:10028C0000BF264A7B6852F8232025497B6851F829
:10029C0023309A4236D1214A7B6852F823202149D7
:1002AC007B6851F823309A422CD11E4A7B6852F855
:1002BC0023201E497B6851F823309A4214D0194AE6
:1002CC007B6852F8232019497B6841F82320154A92
:1002DC007B6852F82330002B14D1154B64221A6022
:1002EC007868FFF763FF0DE0114B1B68013B104A68
:1002FC0013600F4B1B68002B04D10C4A7B68012147
:10030C0042F823107B6801337B607B68022B7FF7FC
:10031C0077AF00BF00BF0837BD4680BD0C00002082
:10032C0000000020180000200008014024000020DC
:10033C003000002080B582B000AF78607B68092B5C
:10034C0000F2808101A252F823F000BF8103000863
:10035C00C90300081104000859040008A10400088E
:10036C00E90400083105000879050008C1050008FA
:10037C000906000800220121B44801F094FC002277
:10038C000221B24801F08FFC00220421AF4801F099
:10039C008AFC00220821AD4801F085FC00221021C6
:1003AC00AA4801F080FC00222021A84801F07BFC27
:1003BC0001224021A54801F076FC43E101220121F4
:1003CC00A24801F070FC00220221A04801F06BFC55
:1003DC00002204219D4801F066FC012208219B4863
:1003EC0001F061FC01221021984801F05CFC012213
:1003FC002021964801F057FC01224021934801F03E
:10040C0052FC1FE100220121904801F04CFC00221B
:10041C0002218E4801F047FC012204218B4801F097
:10042C0042FC00220821894801F03DFC00221021E9
:10043C00864801F038FC01222021844801F033FC6D
:10044C0000224021814801F02EFCFBE0002201211A
:10045C007E4801F028FC002202217C4801F023FC9C
:10046C0000220421794801F01EFC00220821774863
:10047C0001F019FC01221021744801F014FC012236
:10048C002021724801F00FFC002240216F4801F03E
:10049C000AFCD7E0012201216C4801F004FC002287
:1004AC0002216A4801F0FFFB00220421674801F099
:1004BC00FAFB01220821654801F0F5FB012210210D
:1004CC00624801F0F0FB00222021604801F0EBFBB8
:1004DC00002240215D4801F0E6FBB3E0002201213F
:1004EC005A4801F0E0FB01220221584801F0DBFBE5
:1004FC0000220421554801F0D6FB00220821534864
:10050C0001F0D1FB01221021504801F0CCFB00225C
:10051C0020214E4801F0C7FB002240214B4801F03E
:10052C00C2FB8FE000220121484801F0BCFB0122F4
:10053C000221464801F0B7FB00220421434801F098
:10054C00B2FB00220821414801F0ADFB0022102132
:10055C003E4801F0A8FB002220213C4801F0A3FBFF
:10056C0000224021394801F09EFB6BE00022012162
:10057C00364801F098FB00220221344801F093FB2D
:10058C0000220421314801F08EFB012208212F4862
:10059C0001F089FB012210212C4801F084FB01227F
:1005AC0020212A4801F07FFB01224021274801F03D
:1005BC007AFB47E000220121244801F074FB002261
:1005CC000221224801F06FFB002204211F4801F098
:1005DC006AFB002208211D4801F065FB0022102156
:1005EC001A4801F060FB00222021184801F05BFB47
:1005FC0000224021154801F056FB23E00022012186
:10060C00124801F050FB00220221104801F04BFB74
:10061C00002204210D4801F046FB002208210B4862
:10062C0001F041FB01221021084801F03CFB0022A3
:10063C002021064801F037FB00224021034801F03D
:10064C0032FB00BF00BF0837BD4680BD000C014027
:10065C0080B582B000AF78607B68092B00F2BC815A
:10066C0001A252F823F000BF9D060008F106000815
:10067C004507000899070008ED0700084108000825
:10068C0095080008E90800083D09000891090008D0
:10069C0000228021D24801F006FB00224FF4807129
:1006AC00CF4801F000FB00224FF40071CC4801F060
:1006BC00FAFA00224FF48061C94801F0F4FA0022E2
:1006CC004FF40061C64801F0EEFA00224FF480515D
:1006DC00C34801F0E8FA01224FF40051C04801F080
:1006EC00E2FA79E101228021BD4801F0DCFA002216
:1006FC004FF48071BA4801F0D6FA00224FF4007121
:10070C00B74801F0D0FA01224FF48061B44801F0EF
:10071C00CAFA01224FF40061B14801F0C4FA012277
:10072C004FF48051AE4801F0BEFA01224FF4005153
:10073C00AB4801F0B8FA4FE100228021A84801F043
:10074C00B2FA00224FF48071A54801F0ACFA0122F4
:10075C004FF40071A24801F0A6FA00224FF4806118
:10076C009F4801F0A0FA00224FF400619C4801F070
:10077C009AFA01224FF48051994801F094FA002220
:10078C004FF40051964801F08EFA25E100228021A9
:10079C00934801F088FA00224FF48071904801F0E0
:1007AC0082FA00224FF400718D4801F07CFA00228D
:1007BC004FF480618A4801F076FA01224FF400610F
:1007CC00874801F070FA01224FF48051844801F0FF
:1007DC006AFA00224FF40051814801F064FAFBE000
:1007EC00012280217E4801F05EFA00224FF48071D4
:1007FC007B4801F058FA00224FF40071784801F060
:10080C0052FA01224FF48061754801F04CFA012232
:10081C004FF40061724801F046FA00224FF4805107
:10082C006F4801F040FA00224FF400516C4801F07F
:10083C003AFAD1E000228021694801F034FA012211
:10084C004FF48071664801F02EFA00224FF40071CB
:10085C00634801F028FA00224FF48061604801F0EF
:10086C0022FA01224FF400615D4801F01CFA0022CB
:10087C004FF480515A4801F016FA00224FF40051FF
:10088C00574801F010FAA7E000228021544801F0EB
:10089C000AFA01224FF48071514801F004FA002247
:1008AC004FF400714E4801F0FEF900224FF48061C4
:1008BC004B4801F0F8F900224FF40061484801F070
:1008CC00F2F900224FF48051454801F0ECF9002276
:1008DC004FF40051424801F0E6F97DE000228021FE
:1008EC003F4801F0E0F900224FF480713C4801F0E0
:1008FC00DAF900224FF40071394801F0D4F90122E1
:10090C004FF48061364801F0CEF901224FF40061BA
:10091C00334801F0C8F901224FF48051304801F0FE
:10092C00C2F901224FF400512D4801F0BCF953E0FB
:10093C00002280212A4801F0B6F900224FF4807180
:10094C00274801F0B0F900224FF40071244801F05F
:10095C00AAF900224FF48061214801F0A4F9002289
:10096C004FF400611E4801F09EF900224FF48051B3
:10097C001B4801F098F900224FF40051184801F07F
:10098C0092F929E000228021154801F08CF900220F
:10099C004FF48071124801F086F900224FF4007177
:1009AC000F4801F080F900224FF480610C4801F0EF
:1009BC007AF901224FF40061094801F074F9002220
:1009CC004FF48051064801F06EF900224FF40051AB
:1009DC00034801F068F900BF00BF0837BD4680BD71
:1009EC00000C014080B500AF2F4B1B68002B02D0D0
:1009FC00012B28D056E0002280212C4801F053F91D
:100A0C0001224FF48071294801F04DF900224FF476
:100A1C000071264801F047F901224FF48061234808
:100A2C0001F041F90020FFF785FC0020FFF710FED4
:100A3C001F4B1B68012B32D1322000F0CFFB1A4B1D
:100A4C0001221A602BE001228021184801F02BF9B9
:100A5C0000224FF48071154801F025F901224FF462
:100A6C000071124801F01FF900224FF480610F4809
:100A7C0001F019F90F4B1B681846FFF75BFC0E4B86
:100A8C001B681846FFF7E4FD094B1B68012B08D1C6
:100A9C00322000F0A3FB044B00221A6001E000BFDF
:100AAC0000E000BF00BF80BD7800002000080140BE
:100ABC0040000020A4000020A800002080B582B0D7
:100ACC0000AF7860394B1B68002B02D0012B30D063
:100ADC0067E000228021364801F0E5F801224FF44E
:100AEC008071334801F0DFF800224FF40071304878
:100AFC0001F0D9F801224FF480612D4801F0D3F8B0
:100B0C002C4B1B682C4A82FB03129210DB17D31A56
:100B1C001846FFF70FFC0020FFF79AFD274B1B68C8
:100B2C00012B3BD1322000F059FB204B01221A60E3
:100B3C0034E0012280211E4801F0B5F800224FF468
:100B4C0080711B4801F0AFF801224FF40071184876
:100B5C0001F0A9F800224FF48061154801F0A3F8C8
:100B6C00144B1A68144B83FB02139910D317C91A30
:100B7C000B469B000B445B00D11A0846FFF7DAFBCF
:100B8C007868FFF765FD0D4B1B68012B08D13220EF
:100B9C0000F024FB054B00221A6001E000BF00E0CE
:100BAC0000BF00BF0837BD4680BD00BF78000020E5
:100BBC00000801407C00002067666666400000204B
:100BCC0080B500AF484B1B68013B032B41D801A2F9
:100BDC0052F823F0F10B0008070C0008250C000854
:100BEC00410C0008012000F06FFC3F4B02221A6000
:100BFC004FF4FA7000F0B2FA2CE03C4B1B68012B5E
:100C0C0006D1394B03221A604FF42F7000F0A6FA6C
:100C1C00012000F08BFC1DE0344B1B68012B05D12F
:100C2C00314B04221A60C82000F098FA012000F021
:100C3C00AFFC0FE02D4B1B68012B06D12A4B022277
:100C4C001A604FF4FA7000F089FA012000F0D2FC1F
:100C5C0000E000BF264B1B68013B032B41D801A2CF
:100C6C0052F823F0810C0008970C0008B50C000812
:100C7C00D10C0008022000F027FC1D4B02221A6048
:100C8C004FF4FA7000F08AFA2CE01A4B1B68012B17
:100C9C0006D1174B03221A604FF42F7000F07EFA26
:100CAC00022000F043FC1DE0124B1B68012B05D108
:100CBC000F4B04221A60C82000F070FA022000F0DA
:100CCC0067FC0FE00B4B1B68012B06D1084B022273
:100CDC001A604FF4FA7000F061FA022000F08AFCFE
:100CEC0000E000BF00BF80BD380000209400002051
:100CFC003C0000209800002080B500AF834B1B689F
:100D0C000C3B032B00F2F78001A252F823F000BF3A
:100D1C002D0D00085B0D0008ED0D00087B0E000882
:100D2C00FFF74EFFFFF75EFEFFF70AFA0346002BB4
:100D3C0000F0E380754B0D221A60012000F0C4FB1B
:100D4C00022000F0C1FB322000F05CFAD5E0704BC1
:100D5C001B68012B0CD1322000F054FA0022022126
:100D6C006C4800F0A0FF002210216A4800F09BFFA5
:100D7C00FFF7F8F90346002B0BD0674B1B680133C8
:100D8C00654A1360644B1B68632B02DD624B0022C7
:100D9C001A60FFF7F9F90346002B07D05E4B1B686E
:100DAC00642202FB03F3184600F040FA0220FFF71E
:100DBC0085FEFFF7C5F90346002B00F0A080534BCE
:100DCC000E221A60012000F07FFB022000F07CFB59
:100DDC004FF42F7000F0C2F94F4B00221A608EE0D6
:100DEC004B4B1B68012B0CD1322000F00BFA00226C
:100DFC000821484800F057FF00224021454800F0E8
:100E0C0052FFFFF7AFF90346002B0BD0424B1B6888
:100E1C000133414A1360404B1B68632B02DD3E4B90
:100E2C0000221A60FFF7B0F90346002B07D03A4BAB
:100E3C001B68642202FB03F3184600F0F7F9032049
:100E4C00FFF73CFEFFF77CF90346002B59D02F4BE4
:100E5C000F221A60012000F037FB022000F034FB57
:100E6C00C82000F07BF92C4B00221A6049E0284B7B
:100E7C001B68012B0CD1322000F0C4F90022042194
:100E8C00244800F010FF00222021224800F00BFF24
:100E9C00FFF768F90346002B0BD01F4B1B6801337F
:100EAC001D4A13601C4B1B68632B02DD1A4B00227E
:100EBC001A60FFF769F90346002B07D0164B1B6825
:100ECC00642202FB03F3184600F0B0F90420FFF78C
:100EDC00F5FDFFF735F90346002B14D00B4B0C2214
:100EEC001A60012000F0F0FA022000F0EDFA0A4B33
:100EFC0000221A6007E000BF06E000BF04E000BF5C
:100F0C0002E000BF00E000BF00BF80BD3400002045
:100F1C009C000020000801407C00002080B500AF40
:100F2C0000F0C0FB00F01CF800F0A2F800F054F840
:100F3C00084801F0FDFA084B03221A60074B022205
:100F4C001A60322000F00AF9322000F027F9FFF77E
:100F5C00D3FEFCE7AC000020380000203C00002051
:100F6C0080B590B000AF07F1180328220021184675
:100F7C0001F08EFE3B1D00221A605A609A60DA6006
:100F8C001A610223BB610123BB621023FB620023A5
:100F9C007B6307F11803184600F09EFE0346002BF6
:100FAC0001D000F0D5F80F237B600023BB60002339
:100FBC00FB6000233B6100237B613B1D0021184635
:100FCC0001F00AF90346002B01D000F0C1F800BF74
:100FDC004037BD4680BD000080B586B000AF07F13C
:100FEC00080300221A605A609A60DA603B460022BD
:100FFC001A605A601D4B4FF080421A601B4B41F631
:10100C003F725A60194B00229A60184B0922DA6021
:10101C00164B00221A61154B00229A61134801F0FD
:10102C0037FA0346002B01D000F092F84FF48053AE
:10103C00BB6007F1080319460C4801F0B5FB0346E9
:10104C00002B01D000F084F800233B6000237B6070
:10105C003B461946054801F08DFD0346002B01D097
:10106C0000F076F800BF1837BD4680BDAC000020FC
:10107C0080B586B000AF07F1080300221A605A60F1
:10108C009A60DA60294B9B69284A43F00403936108
:10109C00264B9B6903F004037B607B68234B9B69A5
:1010AC00224A43F008039361204B9B6903F0080329
:1010BC003B603B68002240F2FE711D4800F0F3FDDE
:1010CC00002243F6FF711B4800F0EDFD40F2FE7369
:1010DC00BB600123FB6000233B6102237B6107F1B2
:1010EC0008031946124800F04DFC43F6FF73BB6031
:1010FC000123FB6000233B6102237B6107F10803A2
:10110C0019460C4800F03EFC4FF46053BB600023C2
:10111C00FB6001233B6107F108031946044800F00A
:10112C0031FC00BF1837BD4680BD00BF0010024027
:10113C0000080140000C014080B582B000AF78601F
:10114C0000F088F8FFF756F800BF0837BD4680BDA1
:10115C0080B400AF72B600BFFEE7000080B483B06D
:10116C0000AF7860094A7B6813607B68084A82FB91
:10117C0003125211DB17D31A064A1360064B0022D6
:10118C001A6000BF0C37BD4680BC70478000002041
:10119C001F85EB51A40000209400002080B483B084
:1011AC0000AF7860094A7B6813607B68084A82FB51
:1011BC0003125211DB17D31A064A1360064B002296
:1011CC001A6000BF0C37BD4680BC704784000020FD
:1011DC001F85EB51A80000209800002080B483B03C
:1011EC0000AF7860054A7B681360054B00221A60DB
:1011FC0000BF0C37BD4680BC704700BF8800002084
:10120C004000002080B483B000AF7860054A7B6852
:10121C001360054B00221A6000BF0C37BD4680BC22
:10122C00704700BF8C0000209C00002080B483B06D
:10123C0000AF7860054A7B681360054B00221A608A
:10124C0000BF0C37BD4680BC704700BF900000202B
:10125C00A000002080B400AF464B1B68002B1EDDA5
:10126C00444B1B68013B434A1360424B1A68424B88
:10127C0083FB02135911D317CB1A642101FB03F31F
:10128C00D31A002B04D13D4B1B68013B3B4A136026
:10129C00384B1B68002B02D1394B01221A60394B99
:1012AC001B68002B1EDD374B1B68013B354A136056
:1012BC00344B1A68304B83FB02135911D317CB1ADA
:1012CC00642101FB03F3D31A002B04D12E4B1B68B2
:1012DC00013B2D4A13602B4B1B68002B02D12B4B6F
:1012EC0001221A602A4B1B68002B0BDD284B1B6854
:1012FC00013B274A1360264B1B68002B02D1254B60
:10130C0001221A60244B1B68002B0BDD224B1B683F
:10131C00013B214A1360204B1B68002B02D11F4B51
:10132C0001221A601E4B1B68002B1EDD1C4B1B6818
:10133C00013B1B4A13601A4B1A680F4B83FB0213B9
:10134C005911D317CB1A642101FB03F3D31A002BC9
:10135C0004D1144B1B68013B124A1360104B1B68E1
:10136C00002B02D1104B01221A6000BFBD4680BC7D
:10137C00704700BF800000201F85EB51A4000020A7
:10138C009400002084000020A80000209800002079
:10139C0088000020400000208C0000209C000020D1
:1013AC00900000207C000020A000002080B485B0BC
:1013BC0000AF154B9B69144A43F001039361124B28
:1013CC009B6903F00103BB60BB680F4BDB690E4AE2
:1013DC0043F08053D3610C4BDB6903F080537B608B
:1013EC007B680A4B5B68FB60FB6823F0E063FB6087
:1013FC00FB6843F08063FB60044AFB68536000BFEA
:10140C001437BD4680BC70470010024000000140FC
:10141C0080B584B000AF78607B681B68B3F1804FF7
:10142C0013D10C4BDB690B4A43F00103D361094B1D
:10143C00DB6903F00103FB60FB68002200211C2028
:10144C0000F069FA1C2000F082FA00BF1037BD468C
:10145C0080BD00BF0010024080B400AFFEE780B436
:10146C0000AFFEE780B400AFFEE780B400AFFEE74C
:10147C0080B400AFFEE780B400AF00BFBD4680BCB7
:10148C00704780B400AF00BFBD4680BC704780B4CD
:10149C0000AF00BFBD4680BC704780B500AF00F008
:1014AC0047F900BF80BD000080B500AF024801F0D5
:1014BC008BF800BF80BD00BFAC00002080B400AF33
:1014CC0000BFBD4680BC704780B582B000AF78606D
:1014DC007B68012B03D07B68022B10D01FE001220C
:1014EC000221114800F0DFFB012208210E4800F018
:1014FC00DAFB012204210C4800F0D5FB0FE001229D
:10150C001021094800F0CFFB01224021064800F0D1
:10151C00CAFB01222021044800F0C5FB00BF00BF1C
:10152C000837BD4680BD00BF0008014080B582B0C1
:10153C0000AF78607B68012B03D07B68022B10D046
:10154C001FE000220221114800F0ADFB012208210E
:10155C000E4800F0A8FB012204210C4800F0A3FB6C
:10156C000FE000221021094800F09DFB01224021D0
:10157C00064800F098FB01222021044800F093FB60
:10158C0000BF00BF0837BD4680BD00BF000801404A
:10159C0080B582B000AF78607B68012B03D07B688C
:1015AC00022B10D01FE001220221114800F07BFB1E
:1015BC00002208210E4800F076FB012204210C4881
:1015CC0000F071FB0FE001221021094800F06BFBC9
:1015DC0000224021064800F066FB0122202104482D
:1015EC0000F061FB00BF00BF0837BD4680BD00BFE7
:1015FC000008014080B582B000AF78607B68012B99
:10160C0003D07B68022B10D01FE00122022111486D
:10161C0000F049FB012208210E4800F044FB002297
:10162C0004210C4800F03FFB0FE001221021094877
:10163C0000F039FB01224021064800F034FB002267
:10164C002021044800F02FFB00BF00BF0837BD4627
:10165C0080BD00BF00080140FFF730FF0B480C496C
:10166C000C4A002302E0D458C4500433C4188C42F2
:10167C00F9D3094A094C002301E013600432A24259
:10168C00FBD301F0E1FAFFF749FC704700000020A2
:10169C0050000020F02C000850000020F800002022
:1016AC00FEE7000080B500AF084B1B68074A43F00B
:1016BC0010031360032000F023F90F2000F008F84A
:1016CC00FFF774FE0023184680BD00BF00200240C7
:1016DC0080B582B000AF7860124B1A68124B1B7841
:1016EC0019464FF47A73B3FBF1F3B2FBF3F31846DC
:1016FC0000F03BF90346002B01D001230EE07B6880
:10170C000F2B0AD8002279684FF0FF3000F003F954
:10171C00064A7B681360002300E001231846083753
:10172C00BD4680BD440000204C0000204800002035
:10173C0080B400AF054B1B781A46054B1B6813444D
:10174C00034A136000BFBD4680BC70474C000020AC
:10175C00F400002080B400AF024B1B681846BD4655
:10176C0080BC7047F400002080B485B000AF786076
:10177C007B6803F00703FB600C4BDB68BB60BA684B
:10178C004FF6FF031340BB60FB681A02BB681343A0
:10179C0043F0BF6343F40033BB60044ABB68D360BF
:1017AC0000BF1437BD4680BC704700BF00ED00E0A1
:1017BC0080B400AF044BDB681B0A03F00703184628
:1017CC00BD4680BC704700BF00ED00E080B483B024
:1017DC0000AF0346FB7197F90730002B0BDBFB794D
:1017EC0003F01F02064997F907305B09012000FA44
:1017FC0002F241F8232000BF0C37BD4680BC704775
:10180C0000E100E080B483B000AF03463960FB71A7
:10181C0097F90730002B0ADB3B68DAB20C4997F9D1
:10182C0007301201D2B20B4483F800230AE03B6864
:10183C00DAB20849FB7903F00F03043B1201D2B270
:10184C000B441A7600BF0C37BD4680BC704700BFF6
:10185C0000E100E000ED00E080B489B000AFF8607A
:10186C00B9607A60FB6803F00703FB61FB69C3F1A5
:10187C000703042B28BF0423BB61FB690433062B2D
:10188C0002D9FB69033B00E000237B614FF0FF3280
:10189C00BB6902FA03F3DA43BB681A407B699A40CE
:1018AC004FF0FF317B6901FA03F3D9437B680B409E
:1018BC00134318462437BD4680BC704780B582B0B0
:1018CC0000AF78607B68013BB3F1807F01D30123CB
:1018DC000FE00A4A7B68013B53600F214FF0FF3049
:1018EC00FFF790FF054B00229A60044B07221A6009
:1018FC00002318460837BD4680BD00BF10E000E04D
:10190C0080B582B000AF78607868FFF72DFF00BF1C
:10191C000837BD4680BD80B586B000AF0346B960C0
:10192C007A60FB7300237B61FFF742FF78617A6872
:10193C00B9687869FFF790FF024697F90F301146A6
:10194C001846FFF75FFF00BF1837BD4680BD80B556
:10195C0082B000AF0346FB7197F907301846FFF7CA
:10196C0035FF00BF0837BD4680BD80B582B000AFE3
:10197C0078607868FFF7A2FF034618460837BD4623
:10198C0080BD000080B48BB000AF7860396000235C
:10199C007B6200233B6248E101227B6A02FA03F37B
:1019AC00FB613B681B68FA691340BB61BA69FB6950
:1019BC009A4240F037813B685B68A34A93425ED001
:1019CC00A14A934275D8A14A934258D09F4A934258
:1019DC006FD89F4A934252D09D4A934269D89D4AF0
:1019EC0093424CD09B4A934263D89B4A934246D035
:1019FC00994A93425DD8122B2AD8122B59D801A29E
:101A0C0052F823F08B1A0008651A0008771A0008A0
:101A1C00B91A0008BF1A0008BF1A0008BF1A00083C
:101A2C00BF1A0008BF1A0008BF1A0008BF1A000826
:101A3C00BF1A0008BF1A0008BF1A0008BF1A000816
:101A4C00BF1A0008BF1A00086D1A0008811A000896
:101A5C00824A934213D02CE03B68DB683B6229E05E
:101A6C003B68DB6804333B6224E03B68DB6808338B
:101A7C003B621FE03B68DB680C333B621AE03B685F
:101A8C009B68002B02D104233B6213E03B689B68EC
:101A9C00012B05D108233B627B68FA691A6109E0C6
:101AAC0008233B627B68FA695A6103E000233B62BE
:101ABC0000E000BFBB69FF2B01D87B6801E07B68AD
:101ACC0004337B61BB69FF2B02D87B6A9B0002E06D
:101ADC007B6A083B9B003B617B691A680F213B6961
:101AEC0001FA03F3DB431A40396A3B6901FA03F349
:101AFC001A437B691A603B685B6803F08053002BC8
:101B0C0000F09080564B9B69554A43F0010393615A
:101B1C00534B9B6903F00103BB60BB68514A7B6A62
:101B2C009B08023352F82330FB607B6A03F00303FB
:101B3C009B000F2202FA03F3DB43FA681340FB60AD
:101B4C007B68494A93420DD07B68484A934207D040
:101B5C007B68474A934201D1022304E0032302E04D
:101B6C00012300E000237A6A02F003029200934002
:101B7C00FA681343FB603B497B6A9B080233FA68A3
:101B8C0041F823203B685B6803F48013002B06D0DC
:101B9C00384B9A683749BB6913438B6006E0354B69
:101BAC009A68BB69DB43334913408B603B685B68C5
:101BBC0003F40013002B06D02E4BDA682D49BB69B9
:101BCC001343CB6006E02B4BDA68BB69DB43294936
:101BDC001340CB603B685B6803F40033002B06D0EA
:101BEC00244B5A682349BB6913434B6006E0214BD5
:101BFC005A68BB69DB431F4913404B603B685B6809
:101C0C0003F48033002B06D01A4B1A681949BB69B0
:101C1C0013430B6006E0174B1A68BB69DB4315498D
:101C2C0013400B607B6A01337B623B681A687B6AEA
:101C3C0022FA03F3002B7FF4AFAE00BF00BF2C37AA
:101C4C00BD4680BC704700BF000032100000311050
:101C5C0000002210000021100000121000001110D2
:101C6C00001002400000014000080140000C01403F
:101C7C00001001400004014080B485B000AF7860D2
:101C8C000B467B807B689A687B881340002B02D0C4
:101C9C000123FB7301E00023FB73FB7B1846143715
:101CAC00BD4680BC704780B483B000AF78600B46F3
:101CBC007B8013467B707B78002B03D07A887B6803
:101CCC001A6103E07B881A047B681A6100BF0C3729
:101CDC00BD4680BC7047000080B586B000AF786010
:101CEC007B68002B01D101236CE27B681B6803F03D
:101CFC000103002B00F08780924B5B6803F00C0310
:101D0C00042B0CD08F4B5B6803F00C03082B12D107
:101D1C008C4B5B6803F48033B3F5803F0BD1894B5C
:101D2C001B6803F40033002B6CD07B685B68002BC2
:101D3C0068D1012346E27B685B68B3F5803F06D12E
:101D4C00804B1B687F4A43F4803313602EE07B6822
:101D5C005B68002B0CD17B4B1B687A4A23F48033D5
:101D6C001360784B1B68774A23F4802313601DE0C3
:101D7C007B685B68B3F5A02F0CD1724B1B68714A62
:101D8C0043F4802313606F4B1B686E4A43F480331B
:101D9C0013600BE06B4B1B686A4A23F480331360AF
:101DAC00684B1B68674A23F4802313607B685B686D
:101DBC00002B13D0FFF7CEFC386108E0FFF7CAFC0C
:101DCC0002463B69D31A642B01D90323FAE15D4B1C
:101DDC001B6803F40033002BF0D014E0FFF7BAFCBF
:101DEC00386108E0FFF7B6FC02463B69D31A642B56
:101DFC0001D90323E6E1534B1B6803F40033002B9A
:101E0C00F0D100E000BF7B681B6803F00203002BDD
:101E1C0063D04C4B5B6803F00C03002B0BD0494B8D
:101E2C005B6803F00C03082B1CD1464B5B6803F476
:101E3C008033002B16D1434B1B6803F00203002B9D
:101E4C0005D07B681B69012B01D00123BAE13D4B06
:101E5C001B6823F0F8027B685B69DB00394913438C
:101E6C000B603AE07B681B69002B20D0364B0122BB
:101E7C001A60FFF76FFC386108E0FFF76BFC024655
:101E8C003B69D31A022B01D903239BE12D4B1B6811
:101E9C0003F00203002BF0D02A4B1B6823F0F8024E
:101EAC007B685B69DB00274913430B6015E0264B0D
:101EBC0000221A60FFF74EFC386108E0FFF74AFC7D
:101ECC0002463B69D31A022B01D903237AE11D4B3D
:101EDC001B6803F00203002BF0D17B681B6803F036
:101EEC000803002B3AD07B689B69002B19D0174B49
:101EFC0001221A60FFF72EFC386108E0FFF72AFC7C
:101F0C0002463B69D31A022B01D903235AE10D4B2C
:101F1C005B6A03F00203002BF0D0012000F09AFA68
:101F2C001CE00A4B00221A60FFF714FC38610FE02A
:101F3C00FFF710FC02463B69D31A022B08D9032386
:101F4C0040E100BF001002400000424280044242C7
:101F5C009E4B5B6A03F00203002BE9D17B681B6884
:101F6C0003F00403002B00F0A6800023FB75974BB5
:101F7C00DB6903F08053002B0DD1944BDB69934A42
:101F8C0043F08053D361914BDB6903F08053BB600A
:101F9C00BB680123FB758E4B1B6803F48073002B0D
:101FAC0018D18B4B1B688A4A43F480731360FFF77C
:101FBC00D1FB386108E0FFF7CDFB02463B69D31A31
:101FCC00642B01D90323FDE0814B1B6803F4807360
:101FDC00002BF0D07B68DB68012B06D17B4B1B6A96
:101FEC007A4A43F0010313622DE07B68DB68002B17
:101FFC000CD1764B1B6A754A23F001031362734BA9
:10200C001B6A724A23F0040313621CE07B68DB68D2
:10201C00052B0CD16D4B1B6A6C4A43F00403136205
:10202C006A4B1B6A694A43F0010313620BE0674B6E
:10203C001B6A664A23F001031362644B1B6A634AF2
:10204C0023F0040313627B68DB68002B15D0FFF7C9
:10205C0081FB38610AE0FFF77DFB02463B69D31A2E
:10206C0041F28832934201D90323ABE0574B1B6AF0
:10207C0003F00203002BEED014E0FFF76BFB38618A
:10208C000AE0FFF767FB02463B69D31A41F288323C
:10209C00934201D9032395E04C4B1B6A03F00203D6
:1020AC00002BEED1FB7D012B05D1484BDB69474A58
:1020BC0023F08053D3617B68DB69002B00F08180B7
:1020CC00424B5B6803F00C03082B61D07B68DB6927
:1020DC00022B46D13F4B00221A60FFF73BFB3861C5
:1020EC0008E0FFF737FB02463B69D31A022B01D9F4
:1020FC00032367E0354B1B6803F00073002BF0D112
:10210C007B681B6AB3F5803F08D1304B5B6823F4C6
:10211C0000327B689B682D4913434B602B4B5B68EB
:10212C0023F474127B68196A7B685B6A0B4327493A
:10213C0013434B60274B01221A60FFF70BFB3861EE
:10214C0008E0FFF707FB02463B69D31A022B01D9C3
:10215C00032337E01D4B1B6803F00073002BF0D0FA
:10216C002FE01C4B00221A60FFF7F4FA386108E0EC
:10217C00FFF7F0FA02463B69D31A022B01D903236D
:10218C0020E0124B1B6803F00073002BF0D118E019
:10219C007B68DB69012B01D1012313E00B4B5B68DE
:1021AC00FB60FB6803F480327B681B6A9A4206D1A1
:1021BC00FB6803F470127B685B6A9A4201D00123BE
:1021CC0000E0002318461837BD4680BD00100240C1
:1021DC00007000406000424280B584B000AF78606F
:1021EC0039607B68002B01D10123D0E06A4B1B685E
:1021FC0003F007033A689A4210D9674B1B6823F027
:10220C00070265493B6813430B60634B1B6803F083
:10221C0007033A689A4201D00123B8E07B681B6837
:10222C0003F00203002B20D07B681B6803F004032F
:10223C00002B05D0594B5B68584A43F4E06353605C
:10224C007B681B6803F00803002B05D0534B5B68BD
:10225C00524A43F460535360504B5B6823F0F002D6
:10226C007B689B684D4913434B607B681B6803F08C
:10227C000103002B40D07B685B68012B07D1474BD7
:10228C001B6803F40033002B15D101237FE07B681E
:10229C005B68022B07D1414B1B6803F00073002BCA
:1022AC0009D1012373E03D4B1B6803F00203002BA3
:1022BC0001D101236BE0394B5B6823F003027B688F
:1022CC005B68364913434B60FFF744FAF8600AE049
:1022DC00FFF740FA0246FB68D31A41F28832934268
:1022EC0001D9032353E02D4B5B6803F00C027B6890
:1022FC005B689B009A42EBD1274B1B6803F00703EA
:10230C003A689A4210D2244B1B6823F007022249E8
:10231C003B6813430B60204B1B6803F007033A68C0
:10232C009A4201D0012332E07B681B6803F004035E
:10233C00002B08D0194B5B6823F4E0627B68DB68E8
:10234C00164913434B607B681B6803F00803002B92
:10235C0009D0124B5B6823F460527B681B69DB006D
:10236C000E4913434B6000F021F802460B4B5B689F
:10237C001B0903F00F030A49CB5C22FA03F3094A49
:10238C001360094B1B681846FFF7A2F90023184687
:10239C001037BD4680BD00BF002002400010024037
:1023AC00C42C0008440000204800002080B487B0F2
:1023BC0000AF0023FB600023BB6000237B61002384
:1023CC007B6000233B611E4B5B68FB60FB6803F08A
:1023DC000C03042B02D0082B03D027E0194B3B61D4
:1023EC0027E0FB689B0C03F00F03174AD35C7B6060
:1023FC00FB6803F48033002B10D0114B5B685B0C33
:10240C0003F00103114AD35CBB607B680D4A02FBED
:10241C0003F2BB68B2FBF3F37B6104E07B680C4A0C
:10242C0002FB03F37B617B693B6102E0054B3B6183
:10243C0000BF3B6918461C37BD4680BC704700BFC7
:10244C000010024000127A00D42C0008E42C000882
:10245C0000093D0080B485B000AF78600A4B1B6862
:10246C000A4AA2FB03235B0A7A6802FB03F3FB60B4
:10247C0000BFFB685A1EFA60002BF9D100BF00BFE9
:10248C001437BD4680BC704744000020D34D621009
:10249C0080B582B000AF78607B68002B01D101233E
:1024AC0041E07B6893F83D30DBB2002B06D17B68B2
:1024BC00002283F83C207868FEF7AAFF7B68022292
:1024CC0083F83D207B681A687B68043319461046F4
:1024DC0000F056FA7B68012283F846207B680122C3
:1024EC0083F83E207B68012283F83F207B68012221
:1024FC0083F840207B68012283F841207B6801220D
:10250C0083F842207B68012283F843207B680122F8
:10251C0083F844207B68012283F845207B680122E4
:10252C0083F83D20002318460837BD4680BD0000C7
:10253C0080B485B000AF78607B6893F83D30DBB237
:10254C00012B01D0012335E07B68022283F83D206A
:10255C007B681B68DA687B681B6842F00102DA60F2
:10256C007B681B68164A934209D07B681B68B3F1E1
:10257C00804F04D07B681B68124A934211D17B6850
:10258C001B689B6803F00703FB60FB68062B10D0ED
:10259C007B681B681A687B681B6842F001021A6032
:1025AC0007E07B681B681A687B681B6842F00102B5
:1025BC001A60002318461437BD4680BC704700BF14
:1025CC00002C01400004004080B584B000AF78605E
:1025DC007B681B68DB68FB607B681B681B69BB60E6
:1025EC00BB6803F00203002B20D0FB6803F002034E
:1025FC00002B1BD07B681B686FF002021A617B6892
:10260C0001221A777B681B689B6903F00303002B7C
:10261C0003D0786800F098F905E0786800F08BF941
:10262C00786800F09AF97B6800221A77BB6803F08F
:10263C000403002B20D0FB6803F00403002B1BD0F9
:10264C007B681B686FF004021A617B6802221A77A0
:10265C007B681B689B6903F44073002B03D078687C
:10266C0000F072F905E0786800F065F9786800F020
:10267C0074F97B6800221A77BB6803F00803002BFF
:10268C0020D0FB6803F00803002B1BD07B681B6871
:10269C006FF008021A617B6804221A777B681B684A
:1026AC00DB6903F00303002B03D0786800F04CF9CE
:1026BC0005E0786800F03FF9786800F04EF97B6827
:1026CC0000221A77BB6803F01003002B20D0FB68A4
:1026DC0003F01003002B1BD07B681B686FF01002FB
:1026EC001A617B6808221A777B681B68DB6903F424
:1026FC004073002B03D0786800F026F905E0786869
:10270C0000F019F9786800F028F97B6800221A7734
:10271C00BB6803F00103002B0CD0FB6803F0010332
:10272C00002B07D07B681B686FF001021A61786878
:10273C00FEF702FDBB6803F08003002B0CD0FB6896
:10274C0003F08003002B07D07B681B686FF08002BE
:10275C001A61786800F06FFABB6803F04003002B35
:10276C000CD0FB6803F04003002B07D07B681B6880
:10277C006FF040021A61786800F0F8F8BB6803F05B
:10278C002003002B0CD0FB6803F02003002B07D098
:10279C007B681B686FF020021A61786800F042FABF
:1027AC0000BF1037BD4680BD80B584B000AF7860E7
:1027BC0039600023FB737B6893F83C30012B01D10B
:1027CC000223B4E07B68012283F83C207B68022260
:1027DC0083F83D207B681B689B68BB60BB6823F05B
:1027EC007703BB60BB6823F47F43BB607B681B68CB
:1027FC00BA689A603B681B68B3F5005F3ED0B3F5CE
:10280C00005F00F28780B3F5805F00F08680B3F53F
:10281C00805F7FD8702B1AD0702B7BD8602B50D058
:10282C00602B77D8502B3CD0502B73D8402B58D0E2
:10283C00402B6FD8302B64D0302B6BD8202B60D032
:10284C00202B67D8002B5CD0102B5AD062E07B6811
:10285C0018683B6899683B685A683B68DB6800F00D
:10286C006AF97B681B689B68BB60BB6843F07703A5
:10287C00BB607B681B68BA689A604FE07B6818681D
:10288C003B6899683B685A683B68DB6800F053F911
:10289C007B681B689A687B681B6842F480429A606C
:1028AC003CE07B6818683B6859683B68DB681A46F3
:1028BC0000F0CAF87B681B685021184600F021F91B
:1028CC002CE07B6818683B6859683B68DB681A46E3
:1028DC0000F0E8F87B681B686021184600F011F9DD
:1028EC001CE07B6818683B6859683B68DB681A46D3
:1028FC0000F0AAF87B681B684021184600F001F92B
:10290C000CE07B681A683B681B681946104600F09F
:10291C00F8F803E00123FB7300E000BF7B680122A1
:10292C0083F83D207B68002283F83C20FB7B184613
:10293C001037BD4680BD80B483B000AF786000BF57
:10294C000C37BD4680BC704780B483B000AF786054
:10295C0000BF0C37BD4680BC704780B483B000AF5D
:10296C00786000BF0C37BD4680BC704780B483B024
:10297C0000AF786000BF0C37BD4680BC70470000CC
:10298C0080B485B000AF786039607B681B68FB60F1
:10299C007B682B4A934207D07B68B3F1804F03D0FE
:1029AC007B68284A934208D1FB6823F07003FB60D4
:1029BC003B685B68FA681343FB607B68204A934270
:1029CC0007D07B68B3F1804F03D07B681D4A9342DC
:1029DC0008D1FB6823F44073FB603B68DB68FA6842
:1029EC001343FB60FB6823F080023B685B69134375
:1029FC00FB607B68FA681A603B689A687B68DA62ED
:102A0C003B681A687B689A627B680D4A934203D1D3
:102A1C003B681A697B681A637B6801225A617B6880
:102A2C001B6903F00103002B05D07B681B6923F0A5
:102A3C0001027B681A6100BF1437BD4680BC704729
:102A4C00002C01400004004080B487B000AFF86057
:102A5C00B9607A60FB681B6A7B61FB681B6A23F0B8
:102A6C000102FB681A62FB689B693B613B6923F0BE
:102A7C00F0033B617B681B013A6913433B617B6943
:102A8C0023F00A037B617A69BB6813437B61FB68A3
:102A9C003A699A61FB687A691A6200BF1C37BD46B5
:102AAC0080BC704780B487B000AFF860B9607A60C2
:102ABC00FB681B6A7B61FB681B6A23F01002FB68D6
:102ACC001A62FB689B693B613B6923F470433B6171
:102ADC007B681B033A6913433B617B6923F0A003BA
:102AEC007B61BB681B017A6913437B61FB683A69A4
:102AFC009A61FB687A691A6200BF1C37BD4680BCBC
:102B0C00704780B485B000AF786039607B689B6893
:102B1C00FB60FB6823F07003FB603A68FB681343AF
:102B2C0043F00703FB607B68FA689A6000BF1437B8
:102B3C00BD4680BC704780B487B000AFF860B96008
:102B4C007A603B60FB689B687B617B6923F47F4305
:102B5C007B613B681A027B681A43BB6813437A6932
:102B6C0013437B61FB687A699A6000BF1C37BD46D2
:102B7C0080BC704780B485B000AF786039607B68EA
:102B8C0093F83C30012B01D1022341E07B680122F8
:102B9C0083F83C207B68022283F83D207B681B680D
:102BAC005B68FB607B681B689B68BB60FB6823F001
:102BBC007003FB603B681B68FA681343FB607B681F
:102BCC001B68FA685A607B681B68144A934209D0E8
:102BDC007B681B68B3F1804F04D07B681B68104A7C
:102BEC0093420CD1BB6823F08003BB603B685B68ED
:102BFC00BA681343BB607B681B68BA689A607B68D1
:102C0C00012283F83D207B68002283F83C200023BE
:102C1C0018461437BD4680BC704700BF002C0140DD
:102C2C000004004080B483B000AF786000BF0C3764
:102C3C00BD4680BC704780B483B000AF786000BFE5
:102C4C000C37BD4680BC704770B500260C4D0D4C42
:102C5C00641BA410A64209D100F022F800260A4DEC
:102C6C000A4C641BA410A64205D170BD55F8043B58
:102C7C0098470136EEE755F8043B98470136F2E7E2
:102C8C00E82C0008E82C0008E82C0008EC2C0008C4
:102C9C0003460244934200D1704703F8011BF9E745
:102CAC00F8B500BFF8BC08BC9E467047F8B500BF2D
:082CBC00F8BC08BC9E467047FD
:102CC40000000000000000000102030406070809D8
:102CD40002030405060708090A0B0C0D0E0F101059
:042CE40001020000E9
:042CE80031010008AE
:042CEC000D010008CE
:102CF00001000000010000000100000001000000D0
:102D000001000000010000000100000001000000BF
:102D100001000000010000000100000001000000AF
:102D2000640000000C000000010000000100000031
:102D30000100000000127A001000000001000000F5
:040000050800166574
:00000001FF
