:020000040800F2
:100000000028002045160008451400084B1400087D
:1000100051140008571400085D1400080000000087
:100020000000000000000000000000006314000851
:100030006F140008000000007B14000887140008FB
:100040008D1600088D1600088D1600088D16000804
:100050008D1600088D1600088D1600088D160008F4
:100060008D1600088D1600088D1600088D160008E4
:100070008D1600088D1600088D1600088D160008D4
:100080008D1600088D1600088D1600088D160008C4
:100090008D1600088D1600088D1600088D160008B4
:1000A0008D1600088D1600088D1600088D160008A4
:1000B000951400088D160008000000008D16000839
:1000C0008D16000800000000000000008D160008DA
:1000D000000000008D1600088D16000800000000CA
:1000E0008D1600088D1600088D160008000000000F
:1000F0000000000000000000000000000000000000
:0C01000000000000000000005FF808F1A3
:10010C0010B5054C237833B9044B13B10448AFF345
:10011C0000800123237010BD5C0000200000000053
:10012C00BC2C000808B5034B1BB103490348AFF3C3
:10013C00008008BD0000000060000020BC2C0008FE
:10014C0080B400AF064B1B68012B04D1044B00227A
:10015C001A60012300E000231846BD4680BC70479E
:10016C007800002080B400AF064B1B68012B04D133
:10017C00044B00221A60012300E000231846BD4600
:10018C0080BC70477C00002080B400AF064B1B681D
:10019C00012B04D1044B00221A60012300E0002340
:1001AC001846BD4680BC70478000002080B483B0E8
:1001BC0000AF78607B68002B03D10B4B01221A60D7
:1001CC000CE07B68012B03D1084B01221A6005E07F
:1001DC007B68022B02D1064B01221A6000BF0C3740
:1001EC00BD4680BC704700BF780000207C0000201A
:1001FC008000002080B582B000AF00237B6084E0DB
:10020C00464A7B6852F8232045497B6841F82320F5
:10021C00444A7B6852F8232040497B6841F82320EC
:10022C007B68022B21D07B68022B2ADC7B68002B9D
:10023C0003D07B68012B0CD023E04FF400613A48CB
:10024C0001F00AFD03461946364A7B6842F8231032
:10025C0017E04FF48051344801F0FEFC0346194678
:10026C00304A7B6842F823100BE04FF400512E48C3
:10027C0001F0F2FC034619462A4A7B6842F8231027
:10028C0000BF264A7B6852F8232025497B6851F829
:10029C0023309A4236D1214A7B6852F823202149D7
:1002AC007B6851F823309A422CD11E4A7B6852F855
:1002BC0023201E497B6851F823309A4214D0194AE6
:1002CC007B6852F8232019497B6841F82320154A92
:1002DC007B6852F82330002B14D1154B64221A6022
:1002EC007868FFF763FF0DE0114B1B68013B104A68
:1002FC0013600F4B1B68002B04D10C4A7B68012147
:10030C0042F823107B6801337B607B68022B7FF7FC
:10031C0077AF00BF00BF0837BD4680BD0C00002082
:10032C0000000020180000200008014024000020DC
:10033C003000002080B582B000AF78607B68092B5C
:10034C0000F2808101A252F823F000BF8103000863
:10035C00C90300081104000859040008A10400088E
:10036C00E90400083105000879050008C1050008FA
:10037C000906000800220121B44801F084FC002287
:10038C000221B24801F07FFC00220421AF4801F0A9
:10039C007AFC00220821AD4801F075FC00221021E6
:1003AC00AA4801F070FC00222021A84801F06BFC47
:1003BC0001224021A54801F066FC43E10122012104
:1003CC00A24801F060FC00220221A04801F05BFC75
:1003DC00002204219D4801F056FC012208219B4873
:1003EC0001F051FC01221021984801F04CFC012233
:1003FC002021964801F047FC01224021934801F04E
:10040C0042FC1FE100220121904801F03CFC00223B
:10041C0002218E4801F037FC012204218B4801F0A7
:10042C0032FC00220821894801F02DFC0022102109
:10043C00864801F028FC01222021844801F023FC8D
:10044C0000224021814801F01EFCFBE0002201212A
:10045C007E4801F018FC002202217C4801F013FCBC
:10046C0000220421794801F00EFC00220821774873
:10047C0001F009FC01221021744801F004FC012256
:10048C002021724801F0FFFB002240216F4801F04F
:10049C00FAFBD7E0012201216C4801F0F4FB0022A9
:1004AC0002216A4801F0EFFB00220421674801F0A9
:1004BC00EAFB01220821654801F0E5FB012210212D
:1004CC00624801F0E0FB00222021604801F0DBFBD8
:1004DC00002240215D4801F0D6FBB3E0002201214F
:1004EC005A4801F0D0FB01220221584801F0CBFB05
:1004FC0000220421554801F0C6FB00220821534874
:10050C0001F0C1FB01221021504801F0BCFB00227C
:10051C0020214E4801F0B7FB002240214B4801F04E
:10052C00B2FB8FE000220121484801F0ACFB012214
:10053C000221464801F0A7FB00220421434801F0A8
:10054C00A2FB00220821414801F09DFB0022102152
:10055C003E4801F098FB002220213C4801F093FB1F
:10056C0000224021394801F08EFB6BE00022012172
:10057C00364801F088FB00220221344801F083FB4D
:10058C0000220421314801F07EFB012208212F4872
:10059C0001F079FB012210212C4801F074FB01229F
:1005AC0020212A4801F06FFB01224021274801F04D
:1005BC006AFB47E000220121244801F064FB002281
:1005CC000221224801F05FFB002204211F4801F0A8
:1005DC005AFB002208211D4801F055FB0022102176
:1005EC001A4801F050FB00222021184801F04BFB67
:1005FC0000224021154801F046FB23E00022012196
:10060C00124801F040FB00220221104801F03BFB94
:10061C00002204210D4801F036FB002208210B4872
:10062C0001F031FB01221021084801F02CFB0022C3
:10063C002021064801F027FB00224021034801F04D
:10064C0022FB00BF00BF0837BD4680BD000C014037
:10065C0080B582B000AF78607B68092B00F2BC815A
:10066C0001A252F823F000BF9D060008F106000815
:10067C004507000899070008ED0700084108000825
:10068C0095080008E90800083D09000891090008D0
:10069C0000228021D24801F0F6FA00224FF480713A
:1006AC00CF4801F0F0FA00224FF40071CC4801F071
:1006BC00EAFA00224FF48061C94801F0E4FA002202
:1006CC004FF40061C64801F0DEFA00224FF480516D
:1006DC00C34801F0D8FA01224FF40051C04801F090
:1006EC00D2FA79E101228021BD4801F0CCFA002236
:1006FC004FF48071BA4801F0C6FA00224FF4007131
:10070C00B74801F0C0FA01224FF48061B44801F0FF
:10071C00BAFA01224FF40061B14801F0B4FA012297
:10072C004FF48051AE4801F0AEFA01224FF4005163
:10073C00AB4801F0A8FA4FE100228021A84801F053
:10074C00A2FA00224FF48071A54801F09CFA012214
:10075C004FF40071A24801F096FA00224FF4806128
:10076C009F4801F090FA00224FF400619C4801F080
:10077C008AFA01224FF48051994801F084FA002240
:10078C004FF40051964801F07EFA25E100228021B9
:10079C00934801F078FA00224FF48071904801F0F0
:1007AC0072FA00224FF400718D4801F06CFA0022AD
:1007BC004FF480618A4801F066FA01224FF400611F
:1007CC00874801F060FA01224FF48051844801F00F
:1007DC005AFA00224FF40051814801F054FAFBE020
:1007EC00012280217E4801F04EFA00224FF48071E4
:1007FC007B4801F048FA00224FF40071784801F070
:10080C0042FA01224FF48061754801F03CFA012252
:10081C004FF40061724801F036FA00224FF4805117
:10082C006F4801F030FA00224FF400516C4801F08F
:10083C002AFAD1E000228021694801F024FA012231
:10084C004FF48071664801F01EFA00224FF40071DB
:10085C00634801F018FA00224FF48061604801F0FF
:10086C0012FA01224FF400615D4801F00CFA0022EB
:10087C004FF480515A4801F006FA00224FF400510F
:10088C00574801F000FAA7E000228021544801F0FB
:10089C00FAF901224FF48071514801F0F4F9002269
:1008AC004FF400714E4801F0EEF900224FF48061D4
:1008BC004B4801F0E8F900224FF40061484801F080
:1008CC00E2F900224FF48051454801F0DCF9002296
:1008DC004FF40051424801F0D6F97DE0002280210E
:1008EC003F4801F0D0F900224FF480713C4801F0F0
:1008FC00CAF900224FF40071394801F0C4F9012201
:10090C004FF48061364801F0BEF901224FF40061CA
:10091C00334801F0B8F901224FF48051304801F00E
:10092C00B2F901224FF400512D4801F0ACF953E01B
:10093C00002280212A4801F0A6F900224FF4807190
:10094C00274801F0A0F900224FF40071244801F06F
:10095C009AF900224FF48061214801F094F90022A9
:10096C004FF400611E4801F08EF900224FF48051C3
:10097C001B4801F088F900224FF40051184801F08F
:10098C0082F929E000228021154801F07CF900222F
:10099C004FF48071124801F076F900224FF4007187
:1009AC000F4801F070F900224FF480610C4801F0FF
:1009BC006AF901224FF40061094801F064F9002240
:1009CC004FF48051064801F05EF900224FF40051BB
:1009DC00034801F058F900BF00BF0837BD4680BD81
:1009EC00000C014080B500AF2F4B1B68002B02D0D0
:1009FC00012B28D056E0002280212C4801F043F92D
:100A0C0001224FF48071294801F03DF900224FF486
:100A1C000071264801F037F901224FF48061234818
:100A2C0001F031F90020FFF785FC0020FFF710FEE4
:100A3C001F4B1B68012B32D1322000F0E9FB1A4B03
:100A4C0001221A602BE001228021184801F01BF9C9
:100A5C0000224FF48071154801F015F901224FF472
:100A6C000071124801F00FF900224FF480610F4819
:100A7C0001F009F90F4B1B681846FFF75BFC0E4B96
:100A8C001B681846FFF7E4FD094B1B68012B08D1C6
:100A9C00322000F0BDFB044B00221A6001E000BFC5
:100AAC0000E000BF00BF80BD8400002000080140B2
:100ABC004C000020B8000020BC00002080B582B0A3
:100ACC0000AF78603960384B1B68002B02D0012BCB
:100ADC002FD065E000228021344801F0D4F80122A7
:100AEC004FF48071314801F0CEF800224FF40071C0
:100AFC002E4801F0C8F801224FF480612B4801F018
:100B0C00C2F83B682A4A82FB03129210DB17D31AF5
:100B1C001846FFF70FFC0020FFF79AFD254B1B68CA
:100B2C00012B3AD1322000F073FB1F4B01221A60CB
:100B3C0033E0012280211D4801F0A5F800224FF47A
:100B4C0080711A4801F09FF801224FF40071174888
:100B5C0001F099F800224FF48061144801F093F8E9
:100B6C003A68134B83FB02139910D317C91A0B461F
:100B7C009B000B445B00D11A0846FFF7DBFB78683F
:100B8C00FFF766FD0B4B1B68012B08D1322000F0E0
:100B9C003FFB054B00221A6001E000BF00E000BFE4
:100BAC0000BF0837BD4680BD84000020000801400E
:100BBC00676666664C00002080B500AF5A4B1B6818
:100BCC00013B032B52D801A252F823F0E90B000889
:100BDC00070C00082D0C0008530C0008012000F035
:100BEC0063FC514B02221A60504B1B68642202FBBF
:100BFC0003F3184600F0CCFA39E04D4B1B68012B7F
:100C0C000AD1494B03221A604A4B1B68642202FB2F
:100C1C0003F3184600F0BCFA012000F077FC26E044
:100C2C00434B1B68012B0AD13F4B04221A60424BE9
:100C3C001B68642202FB03F3184600F0A9FA01209A
:100C4C0000F096FC13E03A4B1B68012B0AD1364B93
:100C5C0002221A60354B1B68642202FB03F3184610
:100C6C0000F096FA012000F0B5FC00E000BF334B19
:100C7C001B68013B032B53D801A252F823F000BF91
:100C8C009D0C0008BB0C0008E10C0008070D0008C7
:100C9C00022000F009FC294B02221A60234B1B682E
:100CAC00642202FB03F3184600F092FA39E0244B5D
:100CBC001B68012B0AD1214B03221A601D4B1B68A8
:100CCC00642202FB03F3184600F082FA022000F0C3
:100CDC001DFC26E01A4B1B68012B0AD1174B042272
:100CEC001A60154B1B68642202FB03F3184600F0D4
:100CFC006FFA022000F03CFC13E0114B1B68012B37
:100D0C000AD10E4B02221A60084B1B68642202FBAC
:100D1C0003F3184600F05CFA022000F05BFC00E0E4
:100D2C0000BF00BF80BD00BF380000204000002085
:100D3C00A800002044000020480000203C000020B7
:100D4C00AC00002080B500AF784B1B680C3B032B2C
:100D5C0000F2E18001A252F823F000BF790D0008E7
:100D6C00A70D00082B0E0008A70E0008FFF724FFA4
:100D7C00FFF738FEFFF7E4F90346002B00F0CD80B7
:100D8C006A4B0D221A60012000F08EFB022000F04D
:100D9C008BFB322000F050FABFE0654B1B68012B37
:100DAC000AD10221634800F086FF1021614800F04F
:100DBC0082FF322000F040FAFFF7D4F90346002BF3
:100DCC000BD05D4B1B6801335B4A13605A4B1B689D
:100DDC00632B02DD584B00221A60FFF7D5F903464E
:100DEC00002B03D0544B1B68544A1360524B1B68A6
:100DFC0019460220FFF762FEFFF7A2F90346002B0B
:100E0C0000F08D80494B0E221A60012000F04CFB43
:100E1C00022000F049FB322000F00EFA7FE0444B38
:100E2C001B68012B0AD10821424800F044FF4021E5
:100E3C00404800F040FF322000F0FEF9FFF792F935
:100E4C000346002B0BD03E4B1B6801333C4A13600E
:100E5C003B4B1B68632B02DD394B00221A60FFF7FA
:100E6C0093F90346002B03D0354B1B68354A1360AE
:100E7C00334B1B6819460320FFF720FEFFF760F980
:100E8C000346002B4DD0294B0F221A60012000F095
:100E9C000BFB022000F008FB43E0254B1B68012BE9
:100EAC000AD10421234800F006FF2021214800F03C
:100EBC0002FF322000F0C0F9FFF754F90346002B73
:100ECC000BD0214B1B6801331F4A13601E4B1B6850
:100EDC00632B02DD1C4B00221A60FFF755F9034609
:100EEC00002B03D0184B1B68184A1360164B1B6859
:100EFC0019460420FFF7E2FDFFF722F90346002B09
:100F0C0011D00A4B0C221A60012000F0CDFA0220FD
:100F1C0000F0CAFA07E000BF06E000BF04E000BF23
:100F2C0002E000BF00E000BF00BF80BD3400002025
:100F3C00B000002000080140880000204000002084
:100F4C008C0000204400002090000020480000206D
:100F5C0080B500AF00F096FB00F01CF800F0A2F892
:100F6C0000F054F8084801F0EBFA084B03221A6021
:100F7C00074B02221A60322000F00AF9322000F0EE
:100F8C0027F9FFF7DFFEFCE7C00000203800002047
:100F9C003C00002080B590B000AF07F11803282268
:100FAC000021184601F07CFE3B1D00221A605A609D
:100FBC009A60DA601A610223BB610123BB621023C1
:100FCC00FB6200237B6307F11803184600F08CFECC
:100FDC000346002B01D000F0D5F80F237B600023D3
:100FEC00BB600023FB6000233B6100237B613B1D46
:100FFC000021184601F0F8F80346002B01D000F050
:10100C00C1F800BF4037BD4680BD000080B586B03A
:10101C0000AF07F1080300221A605A609A60DA6088
:10102C003B4600221A605A601D4B4FF080421A60FA
:10103C001B4B41F63F725A60194B00229A60184BB9
:10104C000922DA60164B00221A61154B00229A61B4
:10105C00134801F025FA0346002B01D000F092F85A
:10106C004FF48053BB6007F1080319460C4801F09C
:10107C00A3FB0346002B01D000F084F800233B6057
:10108C0000237B603B461946054801F07BFD034677
:10109C00002B01D000F076F800BF1837BD4680BD9C
:1010AC00C000002080B586B000AF07F10803002215
:1010BC001A605A609A60DA60294B9B69284A43F09F
:1010CC0004039361264B9B6903F004037B607B68EC
:1010DC00234B9B69224A43F008039361204B9B6985
:1010EC0003F008033B603B68002240F2FE711D4890
:1010FC0000F0C9FD002243F6FF711B4800F0C3FD50
:10110C0040F2FE73BB600123FB6000233B610223B2
:10111C007B6107F108031946124800F023FC43F6E3
:10112C00FF73BB600123FB6000233B6102237B61E7
:10113C0007F1080319460C4800F014FC4FF46053F7
:10114C00BB600023FB6001233B6107F108031946D8
:10115C00044800F007FC00BF1837BD4680BD00BF37
:10116C000010024000080140000C014080B582B024
:10117C0000AF786000F074F8FFF73CF800BF083758
:10118C00BD4680BD80B400AF72B600BFFEE7000064
:10119C0080B483B000AF7860094A7B6813607B68C9
:1011AC00084A82FB03125211DB17D31A064A13604A
:1011BC00064B00221A6000BF0C37BD4680BC70473E
:1011CC00940000201F85EB51B8000020A8000020DF
:1011DC0080B483B000AF7860094A7B6813607B6889
:1011EC00084A82FB03125211DB17D31A064A13600A
:1011FC00064B00221A6000BF0C37BD4680BC7047FE
:10120C00980000201F85EB51BC000020AC00002092
:10121C0080B483B000AF7860054A7B681360054BDF
:10122C0000221A6000BF0C37BD4680BC704700BF5F
:10123C009C0000204C00002080B483B000AF78608C
:10124C00054A7B681360054B00221A6000BF0C37FF
:10125C00BD4680BC704700BFA0000020B00000203D
:10126C0080B400AF3C4B1B68002B1EDD3A4B1B6857
:10127C00013B394A1360384B1A68384B83FB021315
:10128C005911D317CB1A642101FB03F3D31A002B8A
:10129C0004D1334B1B68013B314A13602E4B1B6846
:1012AC00002B02D12F4B01221A602F4B1B68002BF5
:1012BC001EDD2D4B1B68013B2B4A13602A4B1A6811
:1012CC00264B83FB02135911D317CB1A642101FB54
:1012DC0003F3D31A002B04D1244B1B68013B234A84
:1012EC001360214B1B68002B02D1214B01221A6089
:1012FC00204B1B68002B0BDD1E4B1B68013B1D4A52
:10130C0013601C4B1B68002B02D11B4B01221A6073
:10131C001A4B1B68002B0BDD184B1B68013B174A43
:10132C001360164B1B68002B02D1154B01221A605F
:10133C00144B1B68002B0BDD124B1B68013B114A35
:10134C001360104B1B68002B02D10F4B01221A604B
:10135C0000BFBD4680BC7047940000201F85EB5138
:10136C00B8000020A800002098000020BC0000203D
:10137C00AC0000209C0000204C000020A0000020AD
:10138C00B0000020A4000020B400002080B485B080
:10139C0000AF154B9B69144A43F001039361124B48
:1013AC009B6903F00103BB60BB680F4BDB690E4A02
:1013BC0043F08053D3610C4BDB6903F080537B60AB
:1013CC007B680A4B5B68FB60FB6823F0E063FB60A7
:1013DC00FB6843F08063FB60044AFB68536000BF0A
:1013EC001437BD4680BC704700100240000001401D
:1013FC0080B584B000AF78607B681B68B3F1804F18
:10140C0013D10C4BDB690B4A43F00103D361094B3D
:10141C00DB6903F00103FB60FB68002200211C2048
:10142C0000F069FA1C2000F082FA00BF1037BD46AC
:10143C0080BD00BF0010024080B400AFFEE780B456
:10144C0000AFFEE780B400AFFEE780B400AFFEE76C
:10145C0080B400AFFEE780B400AF00BFBD4680BCD7
:10146C00704780B400AF00BFBD4680BC704780B4ED
:10147C0000AF00BFBD4680BC704780B500AF00F028
:10148C0047F900BF80BD000080B500AF024801F0F5
:10149C00A3F800BF80BD00BFC000002080B400AF27
:1014AC0000BFBD4680BC704780B582B000AF78608D
:1014BC007B68012B03D07B68022B10D01FE001222C
:1014CC000221114800F0DFFB012208210E4800F038
:1014DC00DAFB012204210C4800F0D5FB0FE00122BD
:1014EC001021094800F0CFFB01224021064800F0F2
:1014FC00CAFB01222021044800F0C5FB00BF00BF3D
:10150C000837BD4680BD00BF0008014080B582B0E1
:10151C0000AF78607B68012B03D07B68022B10D066
:10152C001FE000220221114800F0ADFB012208212E
:10153C000E4800F0A8FB012204210C4800F0A3FB8C
:10154C000FE000221021094800F09DFB01224021F0
:10155C00064800F098FB01222021044800F093FB80
:10156C0000BF00BF0837BD4680BD00BF000801406A
:10157C0080B582B000AF78607B68012B03D07B68AC
:10158C00022B10D01FE001220221114800F07BFB3E
:10159C00002208210E4800F076FB012204210C48A1
:1015AC0000F071FB0FE001221021094800F06BFBE9
:1015BC0000224021064800F066FB0122202104484D
:1015CC0000F061FB00BF00BF0837BD4680BD00BF07
:1015DC000008014080B582B000AF78607B68012BB9
:1015EC0003D07B68022B10D01FE00122022111488E
:1015FC0000F049FB012208210E4800F044FB0022B8
:10160C0004210C4800F03FFB0FE001221021094897
:10161C0000F039FB01224021064800F034FB002287
:10162C002021044800F02FFB00BF00BF0837BD4647
:10163C0080BD00BF00080140FFF730FF0B480C498C
:10164C000C4A002302E0D458C4500433C4188C4212
:10165C00F9D3094A094C002301E013600432A24279
:10166C00FBD301F0F9FAFFF773FC70470000002080
:10167C005C000020002D00085C0000200C01002004
:10168C00FEE7000080B500AF084B1B68074A43F02B
:10169C0010031360032000F023F90F2000F008F86A
:1016AC00FFF774FE0023184680BD00BF00200240E7
:1016BC0080B582B000AF7860124B1A68124B1B7861
:1016CC0019464FF47A73B3FBF1F3B2FBF3F31846FC
:1016DC0000F03BF90346002B01D001230EE07B68A0
:1016EC000F2B0AD8002279684FF0FF3000F003F975
:1016FC00064A7B681360002300E001231846083774
:10170C00BD4680BD50000020580000205400002031
:10171C0080B400AF054B1B781A46054B1B6813446D
:10172C00034A136000BFBD4680BC704758000020C0
:10173C000801002080B400AF024B1B681846BD4660
:10174C0080BC70470801002080B485B000AF786081
:10175C007B6803F00703FB600C4BDB68BB60BA686B
:10176C004FF6FF031340BB60FB681A02BB681343C0
:10177C0043F0BF6343F40033BB60044ABB68D360DF
:10178C0000BF1437BD4680BC704700BF00ED00E0C1
:10179C0080B400AF044BDB681B0A03F00703184648
:1017AC00BD4680BC704700BF00ED00E080B483B044
:1017BC0000AF0346FB7197F90730002B0BDBFB796D
:1017CC0003F01F02064997F907305B09012000FA64
:1017DC0002F241F8232000BF0C37BD4680BC704795
:1017EC0000E100E080B483B000AF03463960FB71C8
:1017FC0097F90730002B0ADB3B68DAB20C4997F9F2
:10180C0007301201D2B20B4483F800230AE03B6884
:10181C00DAB20849FB7903F00F03043B1201D2B290
:10182C000B441A7600BF0C37BD4680BC704700BF16
:10183C0000E100E000ED00E080B489B000AFF8609A
:10184C00B9607A60FB6803F00703FB61FB69C3F1C5
:10185C000703042B28BF0423BB61FB690433062B4D
:10186C0002D9FB69033B00E000237B614FF0FF32A0
:10187C00BB6902FA03F3DA43BB681A407B699A40EE
:10188C004FF0FF317B6901FA03F3D9437B680B40BE
:10189C00134318462437BD4680BC704780B582B0D0
:1018AC0000AF78607B68013BB3F1807F01D30123EB
:1018BC000FE00A4A7B68013B53600F214FF0FF3069
:1018CC00FFF790FF054B00229A60044B07221A6029
:1018DC00002318460837BD4680BD00BF10E000E06D
:1018EC0080B582B000AF78607868FFF72DFF00BF3D
:1018FC000837BD4680BD80B586B000AF0346B960E1
:10190C007A60FB7300237B61FFF742FF78617A6892
:10191C00B9687869FFF790FF024697F90F301146C6
:10192C001846FFF75FFF00BF1837BD4680BD80B576
:10193C0082B000AF0346FB7197F907301846FFF7EA
:10194C0035FF00BF0837BD4680BD80B582B000AF03
:10195C0078607868FFF7A2FF034618460837BD4643
:10196C0080BD000080B48BB000AF7860396000237C
:10197C007B6200233B6248E101227B6A02FA03F39B
:10198C00FB613B681B68FA691340BB61BA69FB6970
:10199C009A4240F037813B685B68A34A93425ED021
:1019AC00A14A934275D8A14A934258D09F4A934278
:1019BC006FD89F4A934252D09D4A934269D89D4A10
:1019CC0093424CD09B4A934263D89B4A934246D055
:1019DC00994A93425DD8122B2AD8122B59D801A2BE
:1019EC0052F823F06B1A0008451A0008571A000821
:1019FC00991A00089F1A00089F1A00089F1A0008DD
:101A0C009F1A00089F1A00089F1A00089F1A0008C6
:101A1C009F1A00089F1A00089F1A00089F1A0008B6
:101A2C009F1A00089F1A00084D1A0008611A000836
:101A3C00824A934213D02CE03B68DB683B6229E07E
:101A4C003B68DB6804333B6224E03B68DB680833AB
:101A5C003B621FE03B68DB680C333B621AE03B687F
:101A6C009B68002B02D104233B6213E03B689B680C
:101A7C00012B05D108233B627B68FA691A6109E0E6
:101A8C0008233B627B68FA695A6103E000233B62DE
:101A9C0000E000BFBB69FF2B01D87B6801E07B68CD
:101AAC0004337B61BB69FF2B02D87B6A9B0002E08D
:101ABC007B6A083B9B003B617B691A680F213B6981
:101ACC0001FA03F3DB431A40396A3B6901FA03F369
:101ADC001A437B691A603B685B6803F08053002BE8
:101AEC0000F09080564B9B69554A43F0010393617B
:101AFC00534B9B6903F00103BB60BB68514A7B6A83
:101B0C009B08023352F82330FB607B6A03F003031B
:101B1C009B000F2202FA03F3DB43FA681340FB60CD
:101B2C007B68494A93420DD07B68484A934207D060
:101B3C007B68474A934201D1022304E0032302E06D
:101B4C00012300E000237A6A02F003029200934022
:101B5C00FA681343FB603B497B6A9B080233FA68C3
:101B6C0041F823203B685B6803F48013002B06D0FC
:101B7C00384B9A683749BB6913438B6006E0354B89
:101B8C009A68BB69DB43334913408B603B685B68E5
:101B9C0003F40013002B06D02E4BDA682D49BB69D9
:101BAC001343CB6006E02B4BDA68BB69DB43294956
:101BBC001340CB603B685B6803F40033002B06D00A
:101BCC00244B5A682349BB6913434B6006E0214BF5
:101BDC005A68BB69DB431F4913404B603B685B6829
:101BEC0003F48033002B06D01A4B1A681949BB69D1
:101BFC0013430B6006E0174B1A68BB69DB431549AE
:101C0C0013400B607B6A01337B623B681A687B6A0A
:101C1C0022FA03F3002B7FF4AFAE00BF00BF2C37CA
:101C2C00BD4680BC704700BF000032100000311070
:101C3C0000002210000021100000121000001110F2
:101C4C00001002400000014000080140000C01405F
:101C5C00001001400004014080B485B000AF7860F2
:101C6C000B467B807B689A687B881340002B02D0E4
:101C7C000123FB7301E00023FB73FB7B1846143735
:101C8C00BD4680BC704780B483B000AF78600B4613
:101C9C007B8013467B707B78002B03D07A887B6823
:101CAC001A6103E07B881A047B681A6100BF0C3749
:101CBC00BD4680BC704780B485B000AF78600B46E1
:101CCC007B807B68DB68FB607A88FB6813401A04B6
:101CDC00FB68D9437B880B401A437B681A6100BFB1
:101CEC001437BD4680BC704780B586B000AF7860B5
:101CFC007B68002B01D101236CE27B681B6803F02D
:101D0C000103002B00F08780924B5B6803F00C03FF
:101D1C00042B0CD08F4B5B6803F00C03082B12D1F7
:101D2C008C4B5B6803F48033B3F5803F0BD1894B4C
:101D3C001B6803F40033002B6CD07B685B68002BB2
:101D4C0068D1012346E27B685B68B3F5803F06D11E
:101D5C00804B1B687F4A43F4803313602EE07B6812
:101D6C005B68002B0CD17B4B1B687A4A23F48033C5
:101D7C001360784B1B68774A23F4802313601DE0B3
:101D8C007B685B68B3F5A02F0CD1724B1B68714A52
:101D9C0043F4802313606F4B1B686E4A43F480330B
:101DAC0013600BE06B4B1B686A4A23F4803313609F
:101DBC00684B1B68674A23F4802313607B685B685D
:101DCC00002B13D0FFF7B6FC386108E0FFF7B2FC2C
:101DDC0002463B69D31A642B01D90323FAE15D4B0C
:101DEC001B6803F40033002BF0D014E0FFF7A2FCC7
:101DFC00386108E0FFF79EFC02463B69D31A642B5E
:101E0C0001D90323E6E1534B1B6803F40033002B89
:101E1C00F0D100E000BF7B681B6803F00203002BCD
:101E2C0063D04C4B5B6803F00C03002B0BD0494B7D
:101E3C005B6803F00C03082B1CD1464B5B6803F466
:101E4C008033002B16D1434B1B6803F00203002B8D
:101E5C0005D07B681B69012B01D00123BAE13D4BF6
:101E6C001B6823F0F8027B685B69DB00394913437C
:101E7C000B603AE07B681B69002B20D0364B0122AB
:101E8C001A60FFF757FC386108E0FFF753FC024675
:101E9C003B69D31A022B01D903239BE12D4B1B6801
:101EAC0003F00203002BF0D02A4B1B6823F0F8023E
:101EBC007B685B69DB00274913430B6015E0264BFD
:101ECC0000221A60FFF736FC386108E0FFF732FC9D
:101EDC0002463B69D31A022B01D903237AE11D4B2D
:101EEC001B6803F00203002BF0D17B681B6803F026
:101EFC000803002B3AD07B689B69002B19D0174B39
:101F0C0001221A60FFF716FC386108E0FFF712FC9B
:101F1C0002463B69D31A022B01D903235AE10D4B1C
:101F2C005B6A03F00203002BF0D0012000F09AFA58
:101F3C001CE00A4B00221A60FFF7FCFB38610FE033
:101F4C00FFF7F8FB02463B69D31A022B08D903238F
:101F5C0040E100BF001002400000424280044242B7
:101F6C009E4B5B6A03F00203002BE9D17B681B6874
:101F7C0003F00403002B00F0A6800023FB75974BA5
:101F8C00DB6903F08053002B0DD1944BDB69934A32
:101F9C0043F08053D361914BDB6903F08053BB60FA
:101FAC00BB680123FB758E4B1B6803F48073002BFD
:101FBC0018D18B4B1B688A4A43F480731360FFF76C
:101FCC00B9FB386108E0FFF7B5FB02463B69D31A51
:101FDC00642B01D90323FDE0814B1B6803F4807350
:101FEC00002BF0D07B68DB68012B06D17B4B1B6A86
:101FFC007A4A43F0010313622DE07B68DB68002B07
:10200C000CD1764B1B6A754A23F001031362734B98
:10201C001B6A724A23F0040313621CE07B68DB68C2
:10202C00052B0CD16D4B1B6A6C4A43F004031362F5
:10203C006A4B1B6A694A43F0010313620BE0674B5E
:10204C001B6A664A23F001031362644B1B6A634AE2
:10205C0023F0040313627B68DB68002B15D0FFF7B9
:10206C0069FB38610AE0FFF765FB02463B69D31A4E
:10207C0041F28832934201D90323ABE0574B1B6AE0
:10208C0003F00203002BEED014E0FFF753FB386192
:10209C000AE0FFF74FFB02463B69D31A41F2883244
:1020AC00934201D9032395E04C4B1B6A03F00203C6
:1020BC00002BEED1FB7D012B05D1484BDB69474A48
:1020CC0023F08053D3617B68DB69002B00F08180A7
:1020DC00424B5B6803F00C03082B61D07B68DB6917
:1020EC00022B46D13F4B00221A60FFF723FB3861CD
:1020FC0008E0FFF71FFB02463B69D31A022B01D9FC
:10210C00032367E0354B1B6803F00073002BF0D101
:10211C007B681B6AB3F5803F08D1304B5B6823F4B6
:10212C0000327B689B682D4913434B602B4B5B68DB
:10213C0023F474127B68196A7B685B6A0B4327492A
:10214C0013434B60274B01221A60FFF7F3FA3861F7
:10215C0008E0FFF7EFFA02463B69D31A022B01D9CC
:10216C00032337E01D4B1B6803F00073002BF0D0EA
:10217C002FE01C4B00221A60FFF7DCFA386108E0F4
:10218C00FFF7D8FA02463B69D31A022B01D9032375
:10219C0020E0124B1B6803F00073002BF0D118E009
:1021AC007B68DB69012B01D1012313E00B4B5B68CE
:1021BC00FB60FB6803F480327B681B6A9A4206D191
:1021CC00FB6803F470127B685B6A9A4201D00123AE
:1021DC0000E0002318461837BD4680BD00100240B1
:1021EC00007000406000424280B584B000AF78605F
:1021FC0039607B68002B01D10123D0E06A4B1B684E
:10220C0003F007033A689A4210D9674B1B6823F016
:10221C00070265493B6813430B60634B1B6803F073
:10222C0007033A689A4201D00123B8E07B681B6827
:10223C0003F00203002B20D07B681B6803F004031F
:10224C00002B05D0594B5B68584A43F4E06353604C
:10225C007B681B6803F00803002B05D0534B5B68AD
:10226C00524A43F460535360504B5B6823F0F002C6
:10227C007B689B684D4913434B607B681B6803F07C
:10228C000103002B40D07B685B68012B07D1474BC7
:10229C001B6803F40033002B15D101237FE07B680E
:1022AC005B68022B07D1414B1B6803F00073002BBA
:1022BC0009D1012373E03D4B1B6803F00203002B93
:1022CC0001D101236BE0394B5B6823F003027B687F
:1022DC005B68364913434B60FFF72CFAF8600AE051
:1022EC00FFF728FA0246FB68D31A41F28832934270
:1022FC0001D9032353E02D4B5B6803F00C027B6880
:10230C005B689B009A42EBD1274B1B6803F00703D9
:10231C003A689A4210D2244B1B6823F007022249D8
:10232C003B6813430B60204B1B6803F007033A68B0
:10233C009A4201D0012332E07B681B6803F004034E
:10234C00002B08D0194B5B6823F4E0627B68DB68D8
:10235C00164913434B607B681B6803F00803002B82
:10236C0009D0124B5B6823F460527B681B69DB005D
:10237C000E4913434B6000F021F802460B4B5B688F
:10238C001B0903F00F030A49CB5C22FA03F3094A39
:10239C001360094B1B681846FFF78AF9002318468F
:1023AC001037BD4680BD00BF002002400010024027
:1023BC00D42C0008500000205400002080B487B0BA
:1023CC0000AF0023FB600023BB6000237B61002374
:1023DC007B6000233B611E4B5B68FB60FB6803F07A
:1023EC000C03042B02D0082B03D027E0194B3B61C4
:1023FC0027E0FB689B0C03F00F03174AD35C7B6050
:10240C00FB6803F48033002B10D0114B5B685B0C22
:10241C0003F00103114AD35CBB607B680D4A02FBDD
:10242C0003F2BB68B2FBF3F37B6104E07B680C4AFC
:10243C0002FB03F37B617B693B6102E0054B3B6173
:10244C0000BF3B6918461C37BD4680BC704700BFB7
:10245C000010024000127A00E42C0008F42C000852
:10246C0000093D0080B485B000AF78600A4B1B6852
:10247C000A4AA2FB03235B0A7A6802FB03F3FB60A4
:10248C0000BFFB685A1EFA60002BF9D100BF00BFD9
:10249C001437BD4680BC704750000020D34D6210ED
:1024AC0080B582B000AF78607B68002B01D101232E
:1024BC0041E07B6893F83D30DBB2002B06D17B68A2
:1024CC00002283F83C207868FEF792FF7B6802229A
:1024DC0083F83D207B681A687B68043319461046E4
:1024EC0000F056FA7B68012283F846207B680122B3
:1024FC0083F83E207B68012283F83F207B68012211
:10250C0083F840207B68012283F841207B680122FC
:10251C0083F842207B68012283F843207B680122E8
:10252C0083F844207B68012283F845207B680122D4
:10253C0083F83D20002318460837BD4680BD0000B7
:10254C0080B485B000AF78607B6893F83D30DBB227
:10255C00012B01D0012335E07B68022283F83D205A
:10256C007B681B68DA687B681B6842F00102DA60E2
:10257C007B681B68164A934209D07B681B68B3F1D1
:10258C00804F04D07B681B68124A934211D17B6840
:10259C001B689B6803F00703FB60FB68062B10D0DD
:1025AC007B681B681A687B681B6842F001021A6022
:1025BC0007E07B681B681A687B681B6842F00102A5
:1025CC001A60002318461437BD4680BC704700BF04
:1025DC00002C01400004004080B584B000AF78604E
:1025EC007B681B68DB68FB607B681B681B69BB60D6
:1025FC00BB6803F00203002B20D0FB6803F002033E
:10260C00002B1BD07B681B686FF002021A617B6881
:10261C0001221A777B681B689B6903F00303002B6C
:10262C0003D0786800F098F905E0786800F08BF931
:10263C00786800F09AF97B6800221A77BB6803F07F
:10264C000403002B20D0FB6803F00403002B1BD0E9
:10265C007B681B686FF004021A617B6802221A7790
:10266C007B681B689B6903F44073002B03D078686C
:10267C0000F072F905E0786800F065F9786800F010
:10268C0074F97B6800221A77BB6803F00803002BEF
:10269C0020D0FB6803F00803002B1BD07B681B6861
:1026AC006FF008021A617B6804221A777B681B683A
:1026BC00DB6903F00303002B03D0786800F04CF9BE
:1026CC0005E0786800F03FF9786800F04EF97B6817
:1026DC0000221A77BB6803F01003002B20D0FB6894
:1026EC0003F01003002B1BD07B681B686FF01002EB
:1026FC001A617B6808221A777B681B68DB6903F414
:10270C004073002B03D0786800F026F905E0786858
:10271C0000F019F9786800F028F97B6800221A7724
:10272C00BB6803F00103002B0CD0FB6803F0010322
:10273C00002B07D07B681B686FF001021A61786868
:10274C00FEF714FDBB6803F08003002B0CD0FB6874
:10275C0003F08003002B07D07B681B686FF08002AE
:10276C001A61786800F06FFABB6803F04003002B25
:10277C000CD0FB6803F04003002B07D07B681B6870
:10278C006FF040021A61786800F0F8F8BB6803F04B
:10279C002003002B0CD0FB6803F02003002B07D088
:1027AC007B681B686FF020021A61786800F042FAAF
:1027BC0000BF1037BD4680BD80B584B000AF7860D7
:1027CC0039600023FB737B6893F83C30012B01D1FB
:1027DC000223B4E07B68012283F83C207B68022250
:1027EC0083F83D207B681B689B68BB60BB6823F04B
:1027FC007703BB60BB6823F47F43BB607B681B68BB
:10280C00BA689A603B681B68B3F5005F3ED0B3F5BD
:10281C00005F00F28780B3F5805F00F08680B3F52F
:10282C00805F7FD8702B1AD0702B7BD8602B50D048
:10283C00602B77D8502B3CD0502B73D8402B58D0D2
:10284C00402B6FD8302B64D0302B6BD8202B60D022
:10285C00202B67D8002B5CD0102B5AD062E07B6801
:10286C0018683B6899683B685A683B68DB6800F0FD
:10287C006AF97B681B689B68BB60BB6843F0770395
:10288C00BB607B681B68BA689A604FE07B6818680D
:10289C003B6899683B685A683B68DB6800F053F901
:1028AC007B681B689A687B681B6842F480429A605C
:1028BC003CE07B6818683B6859683B68DB681A46E3
:1028CC0000F0CAF87B681B685021184600F021F90B
:1028DC002CE07B6818683B6859683B68DB681A46D3
:1028EC0000F0E8F87B681B686021184600F011F9CD
:1028FC001CE07B6818683B6859683B68DB681A46C3
:10290C0000F0AAF87B681B684021184600F001F91A
:10291C000CE07B681A683B681B681946104600F08F
:10292C00F8F803E00123FB7300E000BF7B68012291
:10293C0083F83D207B68002283F83C20FB7B184603
:10294C001037BD4680BD80B483B000AF786000BF47
:10295C000C37BD4680BC704780B483B000AF786044
:10296C0000BF0C37BD4680BC704780B483B000AF4D
:10297C00786000BF0C37BD4680BC704780B483B014
:10298C0000AF786000BF0C37BD4680BC70470000BC
:10299C0080B485B000AF786039607B681B68FB60E1
:1029AC007B682B4A934207D07B68B3F1804F03D0EE
:1029BC007B68284A934208D1FB6823F07003FB60C4
:1029CC003B685B68FA681343FB607B68204A934260
:1029DC0007D07B68B3F1804F03D07B681D4A9342CC
:1029EC0008D1FB6823F44073FB603B68DB68FA6832
:1029FC001343FB60FB6823F080023B685B69134365
:102A0C00FB607B68FA681A603B689A687B68DA62DC
:102A1C003B681A687B689A627B680D4A934203D1C3
:102A2C003B681A697B681A637B6801225A617B6870
:102A3C001B6903F00103002B05D07B681B6923F095
:102A4C0001027B681A6100BF1437BD4680BC704719
:102A5C00002C01400004004080B487B000AFF86047
:102A6C00B9607A60FB681B6A7B61FB681B6A23F0A8
:102A7C000102FB681A62FB689B693B613B6923F0AE
:102A8C00F0033B617B681B013A6913433B617B6933
:102A9C0023F00A037B617A69BB6813437B61FB6893
:102AAC003A699A61FB687A691A6200BF1C37BD46A5
:102ABC0080BC704780B487B000AFF860B9607A60B2
:102ACC00FB681B6A7B61FB681B6A23F01002FB68C6
:102ADC001A62FB689B693B613B6923F470433B6161
:102AEC007B681B033A6913433B617B6923F0A003AA
:102AFC007B61BB681B017A6913437B61FB683A6994
:102B0C009A61FB687A691A6200BF1C37BD4680BCAB
:102B1C00704780B485B000AF786039607B689B6883
:102B2C00FB60FB6823F07003FB603A68FB6813439F
:102B3C0043F00703FB607B68FA689A6000BF1437A8
:102B4C00BD4680BC704780B487B000AFF860B960F8
:102B5C007A603B60FB689B687B617B6923F47F43F5
:102B6C007B613B681A027B681A43BB6813437A6922
:102B7C0013437B61FB687A699A6000BF1C37BD46C2
:102B8C0080BC704780B485B000AF786039607B68DA
:102B9C0093F83C30012B01D1022341E07B680122E8
:102BAC0083F83C207B68022283F83D207B681B68FD
:102BBC005B68FB607B681B689B68BB60FB6823F0F1
:102BCC007003FB603B681B68FA681343FB607B680F
:102BDC001B68FA685A607B681B68144A934209D0D8
:102BEC007B681B68B3F1804F04D07B681B68104A6C
:102BFC0093420CD1BB6823F08003BB603B685B68DD
:102C0C00BA681343BB607B681B68BA689A607B68C0
:102C1C00012283F83D207B68002283F83C200023AE
:102C2C0018461437BD4680BC704700BF002C0140CD
:102C3C000004004080B483B000AF786000BF0C3754
:102C4C00BD4680BC704780B483B000AF786000BFD5
:102C5C000C37BD4680BC704770B500260C4D0D4C32
:102C6C00641BA410A64209D100F022F800260A4DDC
:102C7C000A4C641BA410A64205D170BD55F8043B48
:102C8C0098470136EEE755F8043B98470136F2E7D2
:102C9C00F82C0008F82C0008F82C0008FC2C000874
:102CAC0003460244934200D1704703F8011BF9E735
:102CBC00F8B500BFF8BC08BC9E467047F8B500BF1D
:082CCC00F8BC08BC9E467047ED
:102CD40000000000000000000102030406070809C8
:102CE40002030405060708090A0B0C0D0E0F101049
:042CF40001020000D9
:042CF800310100089E
:042CFC000D010008BE
:102D000001000000010000000100000001000000BF
:102D100001000000010000000100000001000000AF
:102D2000010000000100000001000000010000009F
:102D3000640000000C000000010000000100000021
:102D40000500000007000000020000000100000074
:0C2D500000127A001000000001000000DA
:040000050800164594
:00000001FF
